{
  "contractName": "TokenFarm",
  "abi": [
    {
      "inputs": [
        {
          "internalType": "contract MoodToken",
          "name": "_moodToken",
          "type": "address"
        },
        {
          "internalType": "contract DaiToken",
          "name": "_daiToken",
          "type": "address"
        }
      ],
      "stateMutability": "nonpayable",
      "type": "constructor"
    },
    {
      "inputs": [
        {
          "internalType": "address",
          "name": "",
          "type": "address"
        }
      ],
      "name": "currentStakingStatus",
      "outputs": [
        {
          "internalType": "bool",
          "name": "",
          "type": "bool"
        }
      ],
      "stateMutability": "view",
      "type": "function",
      "constant": true
    },
    {
      "inputs": [],
      "name": "daiToken",
      "outputs": [
        {
          "internalType": "contract DaiToken",
          "name": "",
          "type": "address"
        }
      ],
      "stateMutability": "view",
      "type": "function",
      "constant": true
    },
    {
      "inputs": [
        {
          "internalType": "address",
          "name": "",
          "type": "address"
        }
      ],
      "name": "hasStaked",
      "outputs": [
        {
          "internalType": "bool",
          "name": "",
          "type": "bool"
        }
      ],
      "stateMutability": "view",
      "type": "function",
      "constant": true
    },
    {
      "inputs": [],
      "name": "moodToken",
      "outputs": [
        {
          "internalType": "contract MoodToken",
          "name": "",
          "type": "address"
        }
      ],
      "stateMutability": "view",
      "type": "function",
      "constant": true
    },
    {
      "inputs": [],
      "name": "name",
      "outputs": [
        {
          "internalType": "string",
          "name": "",
          "type": "string"
        }
      ],
      "stateMutability": "view",
      "type": "function",
      "constant": true
    },
    {
      "inputs": [
        {
          "internalType": "uint256",
          "name": "",
          "type": "uint256"
        }
      ],
      "name": "stakers",
      "outputs": [
        {
          "internalType": "address",
          "name": "",
          "type": "address"
        }
      ],
      "stateMutability": "view",
      "type": "function",
      "constant": true
    },
    {
      "inputs": [
        {
          "internalType": "address",
          "name": "",
          "type": "address"
        }
      ],
      "name": "stakingBalance",
      "outputs": [
        {
          "internalType": "uint256",
          "name": "",
          "type": "uint256"
        }
      ],
      "stateMutability": "view",
      "type": "function",
      "constant": true
    },
    {
      "inputs": [
        {
          "internalType": "uint256",
          "name": "_amount",
          "type": "uint256"
        }
      ],
      "name": "stakeTokens",
      "outputs": [],
      "stateMutability": "nonpayable",
      "type": "function"
    },
    {
      "inputs": [],
      "name": "unstakeTokens",
      "outputs": [],
      "stateMutability": "nonpayable",
      "type": "function"
    },
    {
      "inputs": [],
      "name": "issueTokens",
      "outputs": [],
      "stateMutability": "nonpayable",
      "type": "function"
    }
  ],
  "bytecode": "0x60806040526040518060400160405280600f81526020017f4d6f6f6420546f6b656e204661726d0000000000000000000000000000000000815250600090816200004a919062000382565b503480156200005857600080fd5b50604051620014b8380380620014b883398181016040528101906200007e91906200052c565b81600160006101000a81548173ffffffffffffffffffffffffffffffffffffffff021916908373ffffffffffffffffffffffffffffffffffffffff16021790555080600260006101000a81548173ffffffffffffffffffffffffffffffffffffffff021916908373ffffffffffffffffffffffffffffffffffffffff160217905550505062000573565b600081519050919050565b7f4e487b7100000000000000000000000000000000000000000000000000000000600052604160045260246000fd5b7f4e487b7100000000000000000000000000000000000000000000000000000000600052602260045260246000fd5b600060028204905060018216806200018a57607f821691505b602082108103620001a0576200019f62000142565b5b50919050565b60008190508160005260206000209050919050565b60006020601f8301049050919050565b600082821b905092915050565b6000600883026200020a7fffffffffffffffffffffffffffffffffffffffffffffffffffffffffffffffff82620001cb565b620002168683620001cb565b95508019841693508086168417925050509392505050565b6000819050919050565b6000819050919050565b6000620002636200025d62000257846200022e565b62000238565b6200022e565b9050919050565b6000819050919050565b6200027f8362000242565b620002976200028e826200026a565b848454620001d8565b825550505050565b600090565b620002ae6200029f565b620002bb81848462000274565b505050565b5b81811015620002e357620002d7600082620002a4565b600181019050620002c1565b5050565b601f8211156200033257620002fc81620001a6565b6200030784620001bb565b8101602085101562000317578190505b6200032f6200032685620001bb565b830182620002c0565b50505b505050565b600082821c905092915050565b6000620003576000198460080262000337565b1980831691505092915050565b600062000372838362000344565b9150826002028217905092915050565b6200038d8262000108565b67ffffffffffffffff811115620003a957620003a862000113565b5b620003b5825462000171565b620003c2828285620002e7565b600060209050601f831160018114620003fa5760008415620003e5578287015190505b620003f1858262000364565b86555062000461565b601f1984166200040a86620001a6565b60005b8281101562000434578489015182556001820191506020850194506020810190506200040d565b8683101562000454578489015162000450601f89168262000344565b8355505b6001600288020188555050505b505050505050565b600080fd5b600073ffffffffffffffffffffffffffffffffffffffff82169050919050565b60006200049b826200046e565b9050919050565b6000620004af826200048e565b9050919050565b620004c181620004a2565b8114620004cd57600080fd5b50565b600081519050620004e181620004b6565b92915050565b6000620004f4826200048e565b9050919050565b6200050681620004e7565b81146200051257600080fd5b50565b6000815190506200052681620004fb565b92915050565b6000806040838503121562000546576200054562000469565b5b60006200055685828601620004d0565b9250506020620005698582860162000515565b9150509250929050565b610f3580620005836000396000f3fe608060405234801561001057600080fd5b506004361061009e5760003560e01c80638e1e056b116100665780638e1e056b14610147578063a5ce413b14610165578063be22f5461461016f578063c93c8f341461018d578063fd5e6dd1146101bd5761009e565b806306fdde03146100a357806345bc78ab146100c1578063589e3294146100f157806360ab5852146101215780637547c7a31461012b575b600080fd5b6100ab6101ed565b6040516100b891906109bd565b60405180910390f35b6100db60048036038101906100d69190610a42565b61027b565b6040516100e89190610a88565b60405180910390f35b61010b60048036038101906101069190610a42565b610293565b6040516101189190610abe565b60405180910390f35b6101296102b3565b005b61014560048036038101906101409190610b05565b61040d565b005b61014f6106b1565b60405161015c9190610b91565b60405180910390f35b61016d6106d7565b005b61017761089f565b6040516101849190610bcd565b60405180910390f35b6101a760048036038101906101a29190610a42565b6108c5565b6040516101b49190610abe565b60405180910390f35b6101d760048036038101906101d29190610b05565b6108e5565b6040516101e49190610bf7565b60405180910390f35b600080546101fa90610c41565b80601f016020809104026020016040519081016040528092919081815260200182805461022690610c41565b80156102735780601f1061024857610100808354040283529160200191610273565b820191906000526020600020905b81548152906001019060200180831161025657829003601f168201915b505050505081565b60036020528060005260406000206000915090505481565b60056020528060005260406000206000915054906101000a900460ff1681565b60005b60068054905081101561040a576000600682815481106102d9576102d8610c72565b5b9060005260206000200160009054906101000a900473ffffffffffffffffffffffffffffffffffffffff1690506000600360008373ffffffffffffffffffffffffffffffffffffffff1673ffffffffffffffffffffffffffffffffffffffff16815260200190815260200160002054905060008111156103f557600160009054906101000a900473ffffffffffffffffffffffffffffffffffffffff1673ffffffffffffffffffffffffffffffffffffffff1663a9059cbb83836040518363ffffffff1660e01b81526004016103b0929190610ca1565b6020604051808303816000875af11580156103cf573d6000803e3d6000fd5b505050506040513d601f19601f820116820180604052508101906103f39190610cf6565b505b5050808061040290610d52565b9150506102b6565b50565b60008111610450576040517f08c379a000000000000000000000000000000000000000000000000000000000815260040161044790610de6565b60405180910390fd5b600260009054906101000a900473ffffffffffffffffffffffffffffffffffffffff1673ffffffffffffffffffffffffffffffffffffffff166323b872dd3330846040518463ffffffff1660e01b81526004016104af93929190610e06565b6020604051808303816000875af11580156104ce573d6000803e3d6000fd5b505050506040513d601f19601f820116820180604052508101906104f29190610cf6565b5080600360003373ffffffffffffffffffffffffffffffffffffffff1673ffffffffffffffffffffffffffffffffffffffff16815260200190815260200160002060008282546105429190610e3d565b92505081905550600460003373ffffffffffffffffffffffffffffffffffffffff1673ffffffffffffffffffffffffffffffffffffffff16815260200190815260200160002060009054906101000a900460ff166105fe576006339080600181540180825580915050600190039060005260206000200160009091909190916101000a81548173ffffffffffffffffffffffffffffffffffffffff021916908373ffffffffffffffffffffffffffffffffffffffff1602179055505b6001600460003373ffffffffffffffffffffffffffffffffffffffff1673ffffffffffffffffffffffffffffffffffffffff16815260200190815260200160002060006101000a81548160ff0219169083151502179055506001600560003373ffffffffffffffffffffffffffffffffffffffff1673ffffffffffffffffffffffffffffffffffffffff16815260200190815260200160002060006101000a81548160ff02191690831515021790555050565b600160009054906101000a900473ffffffffffffffffffffffffffffffffffffffff1681565b6000600360003373ffffffffffffffffffffffffffffffffffffffff1673ffffffffffffffffffffffffffffffffffffffff1681526020019081526020016000205490506000811161075e576040517f08c379a000000000000000000000000000000000000000000000000000000000815260040161075590610edf565b60405180910390fd5b600260009054906101000a900473ffffffffffffffffffffffffffffffffffffffff1673ffffffffffffffffffffffffffffffffffffffff1663a9059cbb33836040518363ffffffff1660e01b81526004016107bb929190610ca1565b6020604051808303816000875af11580156107da573d6000803e3d6000fd5b505050506040513d601f19601f820116820180604052508101906107fe9190610cf6565b506000600360003373ffffffffffffffffffffffffffffffffffffffff1673ffffffffffffffffffffffffffffffffffffffff168152602001908152602001600020819055506000600560003373ffffffffffffffffffffffffffffffffffffffff1673ffffffffffffffffffffffffffffffffffffffff16815260200190815260200160002060006101000a81548160ff02191690831515021790555050565b600260009054906101000a900473ffffffffffffffffffffffffffffffffffffffff1681565b60046020528060005260406000206000915054906101000a900460ff1681565b600681815481106108f557600080fd5b906000526020600020016000915054906101000a900473ffffffffffffffffffffffffffffffffffffffff1681565b600081519050919050565b600082825260208201905092915050565b60005b8381101561095e578082015181840152602081019050610943565b8381111561096d576000848401525b50505050565b6000601f19601f8301169050919050565b600061098f82610924565b610999818561092f565b93506109a9818560208601610940565b6109b281610973565b840191505092915050565b600060208201905081810360008301526109d78184610984565b905092915050565b600080fd5b600073ffffffffffffffffffffffffffffffffffffffff82169050919050565b6000610a0f826109e4565b9050919050565b610a1f81610a04565b8114610a2a57600080fd5b50565b600081359050610a3c81610a16565b92915050565b600060208284031215610a5857610a576109df565b5b6000610a6684828501610a2d565b91505092915050565b6000819050919050565b610a8281610a6f565b82525050565b6000602082019050610a9d6000830184610a79565b92915050565b60008115159050919050565b610ab881610aa3565b82525050565b6000602082019050610ad36000830184610aaf565b92915050565b610ae281610a6f565b8114610aed57600080fd5b50565b600081359050610aff81610ad9565b92915050565b600060208284031215610b1b57610b1a6109df565b5b6000610b2984828501610af0565b91505092915050565b6000819050919050565b6000610b57610b52610b4d846109e4565b610b32565b6109e4565b9050919050565b6000610b6982610b3c565b9050919050565b6000610b7b82610b5e565b9050919050565b610b8b81610b70565b82525050565b6000602082019050610ba66000830184610b82565b92915050565b6000610bb782610b5e565b9050919050565b610bc781610bac565b82525050565b6000602082019050610be26000830184610bbe565b92915050565b610bf181610a04565b82525050565b6000602082019050610c0c6000830184610be8565b92915050565b7f4e487b7100000000000000000000000000000000000000000000000000000000600052602260045260246000fd5b60006002820490506001821680610c5957607f821691505b602082108103610c6c57610c6b610c12565b5b50919050565b7f4e487b7100000000000000000000000000000000000000000000000000000000600052603260045260246000fd5b6000604082019050610cb66000830185610be8565b610cc36020830184610a79565b9392505050565b610cd381610aa3565b8114610cde57600080fd5b50565b600081519050610cf081610cca565b92915050565b600060208284031215610d0c57610d0b6109df565b5b6000610d1a84828501610ce1565b91505092915050565b7f4e487b7100000000000000000000000000000000000000000000000000000000600052601160045260246000fd5b6000610d5d82610a6f565b91507fffffffffffffffffffffffffffffffffffffffffffffffffffffffffffffffff8203610d8f57610d8e610d23565b5b600182019050919050565b7f616d6d6f756e74206d7573742062652067726561746572207468616e20300000600082015250565b6000610dd0601e8361092f565b9150610ddb82610d9a565b602082019050919050565b60006020820190508181036000830152610dff81610dc3565b9050919050565b6000606082019050610e1b6000830186610be8565b610e286020830185610be8565b610e356040830184610a79565b949350505050565b6000610e4882610a6f565b9150610e5383610a6f565b9250827fffffffffffffffffffffffffffffffffffffffffffffffffffffffffffffffff03821115610e8857610e87610d23565b5b828201905092915050565b7f7374616b696e672062616c616e63652063616e6e6f7420626520300000000000600082015250565b6000610ec9601b8361092f565b9150610ed482610e93565b602082019050919050565b60006020820190508181036000830152610ef881610ebc565b905091905056fea264697066735822122092937fb5425af80019c1d76b7b5f46a1897f7b86e67bca885d5e9824fd98b6b864736f6c634300080f0033",
  "immutableReferences": {},
  "source": "// SPDX-License-Identifier: UNLICENSED\npragma solidity 0.8.15;\n\nimport \"./MoodToken.sol\";\nimport \"./DaiToken.sol\";\n\ncontract TokenFarm {\n    string public name = \"Mood Token Farm\";\n    MoodToken public moodToken;\n    DaiToken public daiToken;\n    mapping(address => uint) public stakingBalance;\n    mapping(address => bool) public hasStaked;\n    mapping(address => bool) public currentStakingStatus;\n    address[] public stakers;\n\n    constructor(MoodToken _moodToken, DaiToken _daiToken){\n        moodToken = _moodToken;\n        daiToken = _daiToken;\n    }\n\n    function stakeTokens(uint _amount) public {\n        require(_amount > 0, \"ammount must be greater than 0\");\n        daiToken.transferFrom(msg.sender, address(this), _amount);\n        stakingBalance[msg.sender] += _amount;\n        if(!hasStaked[msg.sender]){\n            stakers.push(msg.sender);   \n        }\n        hasStaked[msg.sender] = true;\n        currentStakingStatus[msg.sender] = true;\n    }\n\n    function unstakeTokens() public {\n        uint balance = stakingBalance[msg.sender];\n        require(balance > 0, \"staking balance cannot be 0\");\n        daiToken.transfer(msg.sender, balance);\n        stakingBalance[msg.sender] = 0;\n        currentStakingStatus[msg.sender] = false;\n    }\n\n\n    function issueTokens() public {\n        for (uint i=0; i<stakers.length; i++){\n            address recipient = stakers[i];\n            uint balance = stakingBalance[recipient];\n            if(balance > 0){\n                moodToken.transfer(recipient, balance);\n            }\n        }\n    }\n}",
  "sourcePath": "/Volumes/LaCie/STAKING/staking_token_dapp/contracts/TokenFarm.sol",
  "compiler": {
    "name": "solc",
    "version": "0.8.15+commit.e14f2714.Emscripten.clang"
  },
  "schemaVersion": "3.4.8",
  "updatedAt": "2022-07-26T17:07:29.738Z",
  "networkType": "ethereum",
  "devdoc": {
    "kind": "dev",
    "methods": {},
    "version": 1
  },
  "userdoc": {
    "kind": "user",
    "methods": {},
    "version": 1
  }
}